{
  "address": "0x5FbDB2315678afecb367f032d93F642f64180aa3",
  "abi": [
    {
      "inputs": [
        {
          "internalType": "uint256",
          "name": "_salaryCharge",
          "type": "uint256"
        },
        {
          "internalType": "uint256",
          "name": "_feeAmountConverter",
          "type": "uint256"
        }
      ],
      "stateMutability": "nonpayable",
      "type": "constructor"
    },
    {
      "inputs": [],
      "name": "EmptyPayrollDataNotAllowed",
      "type": "error"
    },
    {
      "inputs": [],
      "name": "InsufficientBalance",
      "type": "error"
    },
    {
      "inputs": [],
      "name": "NotOwner",
      "type": "error"
    },
    {
      "inputs": [],
      "name": "OwnerIsZeroAddress",
      "type": "error"
    },
    {
      "inputs": [],
      "name": "ReceiverAddressLengthNotEqualWithSalaryAmountLength",
      "type": "error"
    },
    {
      "inputs": [],
      "name": "ReetrantCall",
      "type": "error"
    },
    {
      "inputs": [],
      "name": "TokenExists",
      "type": "error"
    },
    {
      "inputs": [],
      "name": "TokenNotFound",
      "type": "error"
    },
    {
      "inputs": [],
      "name": "TransferFailed",
      "type": "error"
    },
    {
      "anonymous": false,
      "inputs": [
        {
          "indexed": true,
          "internalType": "bytes",
          "name": "_paymentReference",
          "type": "bytes"
        },
        {
          "indexed": true,
          "internalType": "address",
          "name": "_tokenAddress",
          "type": "address"
        },
        {
          "indexed": true,
          "internalType": "address",
          "name": "_caller",
          "type": "address"
        },
        {
          "indexed": false,
          "internalType": "uint256",
          "name": "_recipientCount",
          "type": "uint256"
        },
        {
          "indexed": false,
          "internalType": "uint256",
          "name": "_totalTokensSent",
          "type": "uint256"
        },
        {
          "indexed": false,
          "internalType": "uint256",
          "name": "_feeAmount",
          "type": "uint256"
        },
        {
          "indexed": false,
          "internalType": "address",
          "name": "_feeAddress",
          "type": "address"
        }
      ],
      "name": "BulkPaymentSuccessful",
      "type": "event"
    },
    {
      "anonymous": false,
      "inputs": [
        {
          "indexed": true,
          "internalType": "address",
          "name": "_caller",
          "type": "address"
        },
        {
          "indexed": true,
          "internalType": "address",
          "name": "_to",
          "type": "address"
        },
        {
          "indexed": false,
          "internalType": "uint256",
          "name": "_amount",
          "type": "uint256"
        },
        {
          "indexed": true,
          "internalType": "address",
          "name": "_tokenAddress",
          "type": "address"
        }
      ],
      "name": "NativeTokenMoved",
      "type": "event"
    },
    {
      "anonymous": false,
      "inputs": [
        {
          "indexed": false,
          "internalType": "address",
          "name": "oldOwner",
          "type": "address"
        },
        {
          "indexed": false,
          "internalType": "address",
          "name": "newOwner",
          "type": "address"
        }
      ],
      "name": "OwnershipTransferred",
      "type": "event"
    },
    {
      "anonymous": false,
      "inputs": [
        {
          "indexed": true,
          "internalType": "address",
          "name": "_caller",
          "type": "address"
        },
        {
          "indexed": false,
          "internalType": "uint256",
          "name": "_oldPrice",
          "type": "uint256"
        },
        {
          "indexed": false,
          "internalType": "uint256",
          "name": "_newPrice",
          "type": "uint256"
        }
      ],
      "name": "SalaryChargeChanged",
      "type": "event"
    },
    {
      "anonymous": false,
      "inputs": [
        {
          "indexed": true,
          "internalType": "address",
          "name": "_caller",
          "type": "address"
        },
        {
          "indexed": true,
          "internalType": "address",
          "name": "_to",
          "type": "address"
        },
        {
          "indexed": false,
          "internalType": "uint256",
          "name": "_amount",
          "type": "uint256"
        },
        {
          "indexed": true,
          "internalType": "address",
          "name": "_tokenAddress",
          "type": "address"
        }
      ],
      "name": "TokensMoved",
      "type": "event"
    },
    {
      "anonymous": false,
      "inputs": [
        {
          "indexed": true,
          "internalType": "address",
          "name": "_caller",
          "type": "address"
        },
        {
          "indexed": true,
          "internalType": "bytes",
          "name": "_paymentReference",
          "type": "bytes"
        },
        {
          "indexed": false,
          "internalType": "uint256",
          "name": "totalTokensSent",
          "type": "uint256"
        },
        {
          "indexed": true,
          "internalType": "address",
          "name": "_reciepientAddress",
          "type": "address"
        },
        {
          "indexed": false,
          "internalType": "uint256",
          "name": "_amount",
          "type": "uint256"
        }
      ],
      "name": "TransferNativeTokenFailed",
      "type": "event"
    },
    {
      "inputs": [
        {
          "internalType": "bytes8",
          "name": "_symbol",
          "type": "bytes8"
        },
        {
          "internalType": "address",
          "name": "_tokenAddress",
          "type": "address"
        }
      ],
      "name": "addToken",
      "outputs": [],
      "stateMutability": "nonpayable",
      "type": "function"
    },
    {
      "inputs": [
        {
          "internalType": "bytes",
          "name": "_reference",
          "type": "bytes"
        },
        {
          "internalType": "address[]",
          "name": "_addresses",
          "type": "address[]"
        },
        {
          "internalType": "uint256[]",
          "name": "_salaryAmounts",
          "type": "uint256[]"
        }
      ],
      "name": "distributeNativeCoin",
      "outputs": [
        {
          "internalType": "bool",
          "name": "",
          "type": "bool"
        }
      ],
      "stateMutability": "payable",
      "type": "function"
    },
    {
      "inputs": [
        {
          "internalType": "bytes",
          "name": "_reference",
          "type": "bytes"
        },
        {
          "internalType": "bytes8",
          "name": "_symbol",
          "type": "bytes8"
        },
        {
          "internalType": "address[]",
          "name": "_addresses",
          "type": "address[]"
        },
        {
          "internalType": "uint256[]",
          "name": "_salaryAmounts",
          "type": "uint256[]"
        }
      ],
      "name": "distributeToken",
      "outputs": [
        {
          "internalType": "bool",
          "name": "",
          "type": "bool"
        }
      ],
      "stateMutability": "payable",
      "type": "function"
    },
    {
      "inputs": [],
      "name": "getBalance",
      "outputs": [
        {
          "internalType": "uint256",
          "name": "",
          "type": "uint256"
        }
      ],
      "stateMutability": "view",
      "type": "function"
    },
    {
      "inputs": [],
      "name": "getFeeConverter",
      "outputs": [
        {
          "internalType": "uint256",
          "name": "",
          "type": "uint256"
        }
      ],
      "stateMutability": "view",
      "type": "function"
    },
    {
      "inputs": [],
      "name": "getSalaryCharge",
      "outputs": [
        {
          "internalType": "uint256",
          "name": "",
          "type": "uint256"
        }
      ],
      "stateMutability": "view",
      "type": "function"
    },
    {
      "inputs": [
        {
          "internalType": "bytes8",
          "name": "_symbol",
          "type": "bytes8"
        }
      ],
      "name": "getTokenBalance",
      "outputs": [
        {
          "internalType": "uint256",
          "name": "",
          "type": "uint256"
        }
      ],
      "stateMutability": "view",
      "type": "function"
    },
    {
      "inputs": [
        {
          "internalType": "address payable",
          "name": "_account",
          "type": "address"
        }
      ],
      "name": "moveNativeTokens",
      "outputs": [
        {
          "internalType": "bool",
          "name": "",
          "type": "bool"
        }
      ],
      "stateMutability": "nonpayable",
      "type": "function"
    },
    {
      "inputs": [
        {
          "internalType": "bytes8",
          "name": "_symbol",
          "type": "bytes8"
        },
        {
          "internalType": "address",
          "name": "_account",
          "type": "address"
        }
      ],
      "name": "moveTokens",
      "outputs": [
        {
          "internalType": "bool",
          "name": "",
          "type": "bool"
        }
      ],
      "stateMutability": "nonpayable",
      "type": "function"
    },
    {
      "inputs": [],
      "name": "owner",
      "outputs": [
        {
          "internalType": "address payable",
          "name": "",
          "type": "address"
        }
      ],
      "stateMutability": "view",
      "type": "function"
    },
    {
      "inputs": [
        {
          "internalType": "bytes8",
          "name": "_symbol",
          "type": "bytes8"
        }
      ],
      "name": "removeToken",
      "outputs": [],
      "stateMutability": "nonpayable",
      "type": "function"
    },
    {
      "inputs": [
        {
          "internalType": "uint256",
          "name": "amount",
          "type": "uint256"
        }
      ],
      "name": "reverseFund",
      "outputs": [],
      "stateMutability": "payable",
      "type": "function"
    },
    {
      "inputs": [
        {
          "internalType": "uint256",
          "name": "_feeConverter",
          "type": "uint256"
        }
      ],
      "name": "setFeeAmountConverter",
      "outputs": [
        {
          "internalType": "uint256",
          "name": "",
          "type": "uint256"
        }
      ],
      "stateMutability": "nonpayable",
      "type": "function"
    },
    {
      "inputs": [
        {
          "internalType": "uint256",
          "name": "_newSalaryCharge",
          "type": "uint256"
        }
      ],
      "name": "setSalaryCharge",
      "outputs": [
        {
          "internalType": "bool",
          "name": "",
          "type": "bool"
        }
      ],
      "stateMutability": "nonpayable",
      "type": "function"
    },
    {
      "inputs": [
        {
          "internalType": "bytes8",
          "name": "",
          "type": "bytes8"
        }
      ],
      "name": "tokens",
      "outputs": [
        {
          "internalType": "address",
          "name": "",
          "type": "address"
        }
      ],
      "stateMutability": "view",
      "type": "function"
    },
    {
      "inputs": [
        {
          "internalType": "address payable",
          "name": "_newOwner",
          "type": "address"
        }
      ],
      "name": "transferOwnership",
      "outputs": [],
      "stateMutability": "nonpayable",
      "type": "function"
    }
  ],
  "transactionHash": "0xfae74b3541d4a3dd050c8a236a02b02032b76dd86b8c517b037c0f06eeb270da",
  "args": [
    1,
    1000
  ],
  "numDeployments": 1,
  "solcInputHash": "9331ca4ae98b6bb6a6b763467b6fb5bc",
  "bytecode": "0x60806040523480156200001157600080fd5b50604051620037b0380380620037b08339818101604052810190620000379190620001fa565b60016000806101000a81548160ff021916908360018111156200005f576200005e62000241565b5b021790555033600060016101000a81548173ffffffffffffffffffffffffffffffffffffffff021916908373ffffffffffffffffffffffffffffffffffffffff1602179055508160018190555080600281905550620000e36040518060600160405280602281526020016200378e6022913983620000eb60201b620023821760201c565b505062000359565b6200018d82826040516024016200010492919062000325565b6040516020818303038152906040527fb60e72cc000000000000000000000000000000000000000000000000000000007bffffffffffffffffffffffffffffffffffffffffffffffffffffffff19166020820180517bffffffffffffffffffffffffffffffffffffffffffffffffffffffff83818316178352505050506200019160201b60201c565b5050565b60008151905060006a636f6e736f6c652e6c6f679050602083016000808483855afa5050505050565b600080fd5b6000819050919050565b620001d481620001bf565b8114620001e057600080fd5b50565b600081519050620001f481620001c9565b92915050565b60008060408385031215620002145762000213620001ba565b5b60006200022485828601620001e3565b92505060206200023785828601620001e3565b9150509250929050565b7f4e487b7100000000000000000000000000000000000000000000000000000000600052602160045260246000fd5b600081519050919050565b600082825260208201905092915050565b60005b83811015620002ac5780820151818401526020810190506200028f565b83811115620002bc576000848401525b50505050565b6000601f19601f8301169050919050565b6000620002e08262000270565b620002ec81856200027b565b9350620002fe8185602086016200028c565b6200030981620002c2565b840191505092915050565b6200031f81620001bf565b82525050565b60006040820190508181036000830152620003418185620002d3565b905062000352602083018462000314565b9392505050565b61342580620003696000396000f3fe6080604052600436106100f35760003560e01c806342553f0d1161008a578063bae77f4711610059578063bae77f471461034a578063c45f68aa1461037a578063ca522464146103a3578063f2fde38b146103e0576100f3565b806342553f0d146102755780638da5cb5b146102a5578063aa61421b146102d0578063b783447c1461030d576100f3565b80632057c139116100c65780632057c139146101b45780632efcf906146101d0578063385bdd161461020d5780634038d5751461024a576100f3565b806306a8eb85146100f8578063080b33d8146101215780630bddaf121461014c57806312065fe014610189575b600080fd5b34801561010457600080fd5b5061011f600480360381019061011a919061268c565b610409565b005b34801561012d57600080fd5b506101366105ed565b60405161014391906126e5565b60405180910390f35b34801561015857600080fd5b50610173600480360381019061016e919061272c565b6105f7565b60405161018091906126e5565b60405180910390f35b34801561019557600080fd5b5061019e610690565b6040516101ab91906126e5565b60405180910390f35b6101ce60048036038101906101c9919061272c565b61071e565b005b3480156101dc57600080fd5b506101f760048036038101906101f2919061272c565b610860565b6040516102049190612774565b60405180910390f35b34801561021957600080fd5b50610234600480360381019061022f919061278f565b610950565b60405161024191906127cb565b60405180910390f35b34801561025657600080fd5b5061025f610983565b60405161026c91906126e5565b60405180910390f35b61028f600480360381019061028a91906128f7565b61098d565b60405161029c9190612774565b60405180910390f35b3480156102b157600080fd5b506102ba610fa4565b6040516102c791906129cc565b60405180910390f35b3480156102dc57600080fd5b506102f760048036038101906102f2919061278f565b610fca565b60405161030491906126e5565b60405180910390f35b34801561031957600080fd5b50610334600480360381019061032f919061268c565b61120d565b6040516103419190612774565b60405180910390f35b610364600480360381019061035f91906129e7565b611625565b6040516103719190612774565b60405180910390f35b34801561038657600080fd5b506103a1600480360381019061039c919061278f565b611e6a565b005b3480156103af57600080fd5b506103ca60048036038101906103c59190612adc565b612031565b6040516103d79190612774565b60405180910390f35b3480156103ec57600080fd5b5061040760048036038101906104029190612adc565b6121f1565b005b600060019054906101000a900473ffffffffffffffffffffffffffffffffffffffff1673ffffffffffffffffffffffffffffffffffffffff163373ffffffffffffffffffffffffffffffffffffffff1614610490576040517f30cd747100000000000000000000000000000000000000000000000000000000815260040160405180910390fd5b81600073ffffffffffffffffffffffffffffffffffffffff16600360008377ffffffffffffffffffffffffffffffffffffffffffffffff191677ffffffffffffffffffffffffffffffffffffffffffffffff1916815260200190815260200160002060009054906101000a900473ffffffffffffffffffffffffffffffffffffffff1673ffffffffffffffffffffffffffffffffffffffff1614610560576040517f55c7e8ba00000000000000000000000000000000000000000000000000000000815260040160405180910390fd5b81600360008577ffffffffffffffffffffffffffffffffffffffffffffffff191677ffffffffffffffffffffffffffffffffffffffffffffffff1916815260200190815260200160002060006101000a81548173ffffffffffffffffffffffffffffffffffffffff021916908373ffffffffffffffffffffffffffffffffffffffff160217905550505050565b6000600154905090565b60008060019054906101000a900473ffffffffffffffffffffffffffffffffffffffff1673ffffffffffffffffffffffffffffffffffffffff163373ffffffffffffffffffffffffffffffffffffffff161461067f576040517f30cd747100000000000000000000000000000000000000000000000000000000815260040160405180910390fd5b816002819055506002549050919050565b60008060019054906101000a900473ffffffffffffffffffffffffffffffffffffffff1673ffffffffffffffffffffffffffffffffffffffff163373ffffffffffffffffffffffffffffffffffffffff1614610718576040517f30cd747100000000000000000000000000000000000000000000000000000000815260040160405180910390fd5b47905090565b600060019054906101000a900473ffffffffffffffffffffffffffffffffffffffff1673ffffffffffffffffffffffffffffffffffffffff163373ffffffffffffffffffffffffffffffffffffffff16146107a5576040517f30cd747100000000000000000000000000000000000000000000000000000000815260040160405180910390fd5b60003373ffffffffffffffffffffffffffffffffffffffff1682346107ca9190612b38565b6040516107d690612b9d565b60006040518083038185875af1925050503d8060008114610813576040519150601f19603f3d011682016040523d82523d6000602084013e610818565b606091505b505090508061085c576040517f08c379a000000000000000000000000000000000000000000000000000000000815260040161085390612c35565b60405180910390fd5b5050565b60008060019054906101000a900473ffffffffffffffffffffffffffffffffffffffff1673ffffffffffffffffffffffffffffffffffffffff163373ffffffffffffffffffffffffffffffffffffffff16146108e8576040517f30cd747100000000000000000000000000000000000000000000000000000000815260040160405180910390fd5b60006001549050826001819055503373ffffffffffffffffffffffffffffffffffffffff167ffad233cc4d9ff5a2c36c2f8fab51080e4801f085a9500477d342e769e4e32278828560405161093e929190612c55565b60405180910390a26001915050919050565b60036020528060005260406000206000915054906101000a900473ffffffffffffffffffffffffffffffffffffffff1681565b6000600254905090565b60008060018111156109a2576109a1612c7e565b5b60008054906101000a900460ff1660018111156109c2576109c1612c7e565b5b036109f9576040517f920856a000000000000000000000000000000000000000000000000000000000815260040160405180910390fd5b60008060006101000a81548160ff02191690836001811115610a1e57610a1d612c7e565b5b0217905550828290508585905014610a62576040517f39d1648c00000000000000000000000000000000000000000000000000000000815260040160405180910390fd5b60008585905003610a9f576040517f820c9ea800000000000000000000000000000000000000000000000000000000815260040160405180910390fd5b6000805b84849050811015610b4b57610ada858583818110610ac457610ac3612cad565b5b905060200201358361241e90919063ffffffff16565b91506000858583818110610af157610af0612cad565b5b9050602002013511610b38576040517f08c379a0000000000000000000000000000000000000000000000000000000008152600401610b2f90612d28565b60405180910390fd5b8080610b4390612d48565b915050610aa3565b5080341015610b86576040517ff4d678b800000000000000000000000000000000000000000000000000000000815260040160405180910390fd5b600080610bb2600254610ba48560015461247c90919063ffffffff16565b6124f690919063ffffffff16565b905060008184610bc29190612b38565b9050600060019054906101000a900473ffffffffffffffffffffffffffffffffffffffff1673ffffffffffffffffffffffffffffffffffffffff166108fc839081150290604051600060405180830381858888f19350505050158015610c2c573d6000803e3d6000fd5b5060005b89899050811015610ebf57600073ffffffffffffffffffffffffffffffffffffffff168a8a83818110610c6657610c65612cad565b5b9050602002016020810190610c7b9190612d90565b73ffffffffffffffffffffffffffffffffffffffff1603610cd1576040517f08c379a0000000000000000000000000000000000000000000000000000000008152600401610cc890612e09565b60405180910390fd5b60008a8a83818110610ce657610ce5612cad565b5b9050602002016020810190610cfb9190612d90565b73ffffffffffffffffffffffffffffffffffffffff16898984818110610d2457610d23612cad565b5b90506020020135604051610d3790612b9d565b60006040518083038185875af1925050503d8060008114610d74576040519150601f19603f3d011682016040523d82523d6000602084013e610d79565b606091505b5050905080610e7c578a8a83818110610d9557610d94612cad565b5b9050602002016020810190610daa9190612d90565b73ffffffffffffffffffffffffffffffffffffffff168d8d604051610dd0929190612e5d565b60405180910390203373ffffffffffffffffffffffffffffffffffffffff167fff58997e6be030e9c4d39480ef9773ebc317cba122b9ce749bb11f6a611c12d2888d8d88818110610e2457610e23612cad565b5b90506020020135604051610e39929190612c55565b60405180910390a4610e4a8361071e565b6040517f90b8ec1800000000000000000000000000000000000000000000000000000000815260040160405180910390fd5b610ea8898984818110610e9257610e91612cad565b5b905060200201358661241e90919063ffffffff16565b945050600181610eb89190612e76565b9050610c30565b503373ffffffffffffffffffffffffffffffffffffffff163073ffffffffffffffffffffffffffffffffffffffff168c8c604051610efe929190612e5d565b60405180910390207f105476ab8463d162825d3c4c2867a9c9b87be60a13009b251778c9f0b121ae3a8c8c90508787600060019054906101000a900473ffffffffffffffffffffffffffffffffffffffff16604051610f609493929190612f2b565b60405180910390a4600194505050505060016000806101000a81548160ff02191690836001811115610f9557610f94612c7e565b5b02179055509695505050505050565b600060019054906101000a900473ffffffffffffffffffffffffffffffffffffffff1681565b60008060019054906101000a900473ffffffffffffffffffffffffffffffffffffffff1673ffffffffffffffffffffffffffffffffffffffff163373ffffffffffffffffffffffffffffffffffffffff1614611052576040517f30cd747100000000000000000000000000000000000000000000000000000000815260040160405180910390fd5b81600073ffffffffffffffffffffffffffffffffffffffff16600360008377ffffffffffffffffffffffffffffffffffffffffffffffff191677ffffffffffffffffffffffffffffffffffffffffffffffff1916815260200190815260200160002060009054906101000a900473ffffffffffffffffffffffffffffffffffffffff1673ffffffffffffffffffffffffffffffffffffffff1603611122576040517fcbdb7b3000000000000000000000000000000000000000000000000000000000815260040160405180910390fd5b600360008477ffffffffffffffffffffffffffffffffffffffffffffffff191677ffffffffffffffffffffffffffffffffffffffffffffffff1916815260200190815260200160002060009054906101000a900473ffffffffffffffffffffffffffffffffffffffff1673ffffffffffffffffffffffffffffffffffffffff166370a08231306040518263ffffffff1660e01b81526004016111c491906127cb565b602060405180830381865afa1580156111e1573d6000803e3d6000fd5b505050506040513d601f19601f820116820180604052508101906112059190612f85565b915050919050565b60008060019054906101000a900473ffffffffffffffffffffffffffffffffffffffff1673ffffffffffffffffffffffffffffffffffffffff163373ffffffffffffffffffffffffffffffffffffffff1614611295576040517f30cd747100000000000000000000000000000000000000000000000000000000815260040160405180910390fd5b82600073ffffffffffffffffffffffffffffffffffffffff16600360008377ffffffffffffffffffffffffffffffffffffffffffffffff191677ffffffffffffffffffffffffffffffffffffffffffffffff1916815260200190815260200160002060009054906101000a900473ffffffffffffffffffffffffffffffffffffffff1673ffffffffffffffffffffffffffffffffffffffff1603611365576040517fcbdb7b3000000000000000000000000000000000000000000000000000000000815260040160405180910390fd5b6000600360008677ffffffffffffffffffffffffffffffffffffffffffffffff191677ffffffffffffffffffffffffffffffffffffffffffffffff1916815260200190815260200160002060009054906101000a900473ffffffffffffffffffffffffffffffffffffffff1673ffffffffffffffffffffffffffffffffffffffff166370a08231306040518263ffffffff1660e01b815260040161140991906127cb565b602060405180830381865afa158015611426573d6000803e3d6000fd5b505050506040513d601f19601f8201168201806040525081019061144a9190612f85565b9050600360008677ffffffffffffffffffffffffffffffffffffffffffffffff191677ffffffffffffffffffffffffffffffffffffffffffffffff1916815260200190815260200160002060009054906101000a900473ffffffffffffffffffffffffffffffffffffffff1673ffffffffffffffffffffffffffffffffffffffff1663a9059cbb85836040518363ffffffff1660e01b81526004016114f0929190612fb2565b6020604051808303816000875af115801561150f573d6000803e3d6000fd5b505050506040513d601f19601f820116820180604052508101906115339190613007565b50600360008677ffffffffffffffffffffffffffffffffffffffffffffffff191677ffffffffffffffffffffffffffffffffffffffffffffffff1916815260200190815260200160002060009054906101000a900473ffffffffffffffffffffffffffffffffffffffff1673ffffffffffffffffffffffffffffffffffffffff168473ffffffffffffffffffffffffffffffffffffffff163373ffffffffffffffffffffffffffffffffffffffff167fe1142f17200db3a009ef7f2fd444c5187d2375fa1037e475b6db475d0b442f6c8460405161161191906126e5565b60405180910390a460019250505092915050565b600085600073ffffffffffffffffffffffffffffffffffffffff16600360008377ffffffffffffffffffffffffffffffffffffffffffffffff191677ffffffffffffffffffffffffffffffffffffffffffffffff1916815260200190815260200160002060009054906101000a900473ffffffffffffffffffffffffffffffffffffffff1673ffffffffffffffffffffffffffffffffffffffff16036116f7576040517fcbdb7b3000000000000000000000000000000000000000000000000000000000815260040160405180910390fd5b6000600181111561170b5761170a612c7e565b5b60008054906101000a900460ff16600181111561172b5761172a612c7e565b5b03611762576040517f920856a000000000000000000000000000000000000000000000000000000000815260040160405180910390fd5b60008060006101000a81548160ff0219169083600181111561178757611786612c7e565b5b02179055508383905086869050146117cb576040517f39d1648c00000000000000000000000000000000000000000000000000000000815260040160405180910390fd5b60008686905003611808576040517f820c9ea800000000000000000000000000000000000000000000000000000000815260040160405180910390fd5b6000805b858590508110156118b45761184386868381811061182d5761182c612cad565b5b905060200201358361241e90919063ffffffff16565b9150600086868381811061185a57611859612cad565b5b90506020020135116118a1576040517f08c379a000000000000000000000000000000000000000000000000000000000815260040161189890612d28565b60405180910390fd5b80806118ac90612d48565b91505061180c565b5080600360008a77ffffffffffffffffffffffffffffffffffffffffffffffff191677ffffffffffffffffffffffffffffffffffffffffffffffff1916815260200190815260200160002060009054906101000a900473ffffffffffffffffffffffffffffffffffffffff1673ffffffffffffffffffffffffffffffffffffffff166370a08231336040518263ffffffff1660e01b815260040161195891906127cb565b602060405180830381865afa158015611975573d6000803e3d6000fd5b505050506040513d601f19601f820116820180604052508101906119999190612f85565b10156119d1576040517ff4d678b800000000000000000000000000000000000000000000000000000000815260040160405180910390fd5b6000806119fd6002546119ef8560015461247c90919063ffffffff16565b6124f690919063ffffffff16565b9050600360008b77ffffffffffffffffffffffffffffffffffffffffffffffff191677ffffffffffffffffffffffffffffffffffffffffffffffff1916815260200190815260200160002060009054906101000a900473ffffffffffffffffffffffffffffffffffffffff1673ffffffffffffffffffffffffffffffffffffffff166323b872dd33600060019054906101000a900473ffffffffffffffffffffffffffffffffffffffff16846040518463ffffffff1660e01b8152600401611ac793929190613034565b6020604051808303816000875af1158015611ae6573d6000803e3d6000fd5b505050506040513d601f19601f82011682018060405250810190611b0a9190613007565b5060005b89899050811015611d1b57600073ffffffffffffffffffffffffffffffffffffffff168a8a83818110611b4457611b43612cad565b5b9050602002016020810190611b599190612d90565b73ffffffffffffffffffffffffffffffffffffffff1603611baf576040517f08c379a0000000000000000000000000000000000000000000000000000000008152600401611ba690612e09565b60405180910390fd5b600360008c77ffffffffffffffffffffffffffffffffffffffffffffffff191677ffffffffffffffffffffffffffffffffffffffffffffffff1916815260200190815260200160002060009054906101000a900473ffffffffffffffffffffffffffffffffffffffff1673ffffffffffffffffffffffffffffffffffffffff166323b872dd338c8c85818110611c4857611c47612cad565b5b9050602002016020810190611c5d9190612d90565b8b8b86818110611c7057611c6f612cad565b5b905060200201356040518463ffffffff1660e01b8152600401611c959392919061306b565b6020604051808303816000875af1158015611cb4573d6000803e3d6000fd5b505050506040513d601f19601f82011682018060405250810190611cd89190613007565b50611d05888883818110611cef57611cee612cad565b5b905060200201358461241e90919063ffffffff16565b9250600181611d149190612e76565b9050611b0e565b503373ffffffffffffffffffffffffffffffffffffffff16600360008c77ffffffffffffffffffffffffffffffffffffffffffffffff191677ffffffffffffffffffffffffffffffffffffffffffffffff1916815260200190815260200160002060009054906101000a900473ffffffffffffffffffffffffffffffffffffffff1673ffffffffffffffffffffffffffffffffffffffff168d8d604051611dc3929190612e5d565b60405180910390207f105476ab8463d162825d3c4c2867a9c9b87be60a13009b251778c9f0b121ae3a8c8c90508686600060019054906101000a900473ffffffffffffffffffffffffffffffffffffffff16604051611e259493929190612f2b565b60405180910390a46001945050505060016000806101000a81548160ff02191690836001811115611e5957611e58612c7e565b5b021790555050979650505050505050565b600060019054906101000a900473ffffffffffffffffffffffffffffffffffffffff1673ffffffffffffffffffffffffffffffffffffffff163373ffffffffffffffffffffffffffffffffffffffff1614611ef1576040517f30cd747100000000000000000000000000000000000000000000000000000000815260040160405180910390fd5b80600073ffffffffffffffffffffffffffffffffffffffff16600360008377ffffffffffffffffffffffffffffffffffffffffffffffff191677ffffffffffffffffffffffffffffffffffffffffffffffff1916815260200190815260200160002060009054906101000a900473ffffffffffffffffffffffffffffffffffffffff1673ffffffffffffffffffffffffffffffffffffffff1603611fc1576040517fcbdb7b3000000000000000000000000000000000000000000000000000000000815260040160405180910390fd5b600360008377ffffffffffffffffffffffffffffffffffffffffffffffff191677ffffffffffffffffffffffffffffffffffffffffffffffff1916815260200190815260200160002060006101000a81549073ffffffffffffffffffffffffffffffffffffffff02191690555050565b60008060019054906101000a900473ffffffffffffffffffffffffffffffffffffffff1673ffffffffffffffffffffffffffffffffffffffff163373ffffffffffffffffffffffffffffffffffffffff16146120b9576040517f30cd747100000000000000000000000000000000000000000000000000000000815260040160405180910390fd5b600047905060008373ffffffffffffffffffffffffffffffffffffffff16826040516120e490612b9d565b60006040518083038185875af1925050503d8060008114612121576040519150601f19603f3d011682016040523d82523d6000602084013e612126565b606091505b505090508061216a576040517f08c379a000000000000000000000000000000000000000000000000000000000815260040161216190613114565b60405180910390fd5b3073ffffffffffffffffffffffffffffffffffffffff168473ffffffffffffffffffffffffffffffffffffffff163373ffffffffffffffffffffffffffffffffffffffff167f7508d64a263d58a6ed7435b4c73e56e04e587f355ab79118a31d81a9f5128542856040516121de91906126e5565b60405180910390a4600192505050919050565b600060019054906101000a900473ffffffffffffffffffffffffffffffffffffffff1673ffffffffffffffffffffffffffffffffffffffff163373ffffffffffffffffffffffffffffffffffffffff1614612278576040517f30cd747100000000000000000000000000000000000000000000000000000000815260040160405180910390fd5b600073ffffffffffffffffffffffffffffffffffffffff168173ffffffffffffffffffffffffffffffffffffffff16036122de576040517f54a4010f00000000000000000000000000000000000000000000000000000000815260040160405180910390fd5b60008060019054906101000a900473ffffffffffffffffffffffffffffffffffffffff16905081600060016101000a81548173ffffffffffffffffffffffffffffffffffffffff021916908373ffffffffffffffffffffffffffffffffffffffff1602179055507f8be0079c531659141344cd1fd0a4f28419497f9722a3daafe3b4186f6b6457e08183604051612376929190613134565b60405180910390a15050565b61241a82826040516024016123989291906131e5565b6040516020818303038152906040527fb60e72cc000000000000000000000000000000000000000000000000000000007bffffffffffffffffffffffffffffffffffffffffffffffffffffffff19166020820180517bffffffffffffffffffffffffffffffffffffffffffffffffffffffff8381831617835250505050612540565b5050565b600080828461242d9190612e76565b905083811015612472576040517f08c379a000000000000000000000000000000000000000000000000000000000815260040161246990613261565b60405180910390fd5b8091505092915050565b600080830361248e57600090506124f0565b6000828461249c9190613281565b90508284826124ab919061330a565b146124eb576040517f08c379a00000000000000000000000000000000000000000000000000000000081526004016124e2906133ad565b60405180910390fd5b809150505b92915050565b600061253883836040518060400160405280601a81526020017f536166654d6174683a206469766973696f6e206279207a65726f000000000000815250612569565b905092915050565b60008151905060006a636f6e736f6c652e6c6f679050602083016000808483855afa5050505050565b600080831182906125b0576040517f08c379a00000000000000000000000000000000000000000000000000000000081526004016125a791906133cd565b60405180910390fd5b50600083856125bf919061330a565b9050809150509392505050565b600080fd5b600080fd5b60007fffffffffffffffff00000000000000000000000000000000000000000000000082169050919050565b61260b816125d6565b811461261657600080fd5b50565b60008135905061262881612602565b92915050565b600073ffffffffffffffffffffffffffffffffffffffff82169050919050565b60006126598261262e565b9050919050565b6126698161264e565b811461267457600080fd5b50565b60008135905061268681612660565b92915050565b600080604083850312156126a3576126a26125cc565b5b60006126b185828601612619565b92505060206126c285828601612677565b9150509250929050565b6000819050919050565b6126df816126cc565b82525050565b60006020820190506126fa60008301846126d6565b92915050565b612709816126cc565b811461271457600080fd5b50565b60008135905061272681612700565b92915050565b600060208284031215612742576127416125cc565b5b600061275084828501612717565b91505092915050565b60008115159050919050565b61276e81612759565b82525050565b60006020820190506127896000830184612765565b92915050565b6000602082840312156127a5576127a46125cc565b5b60006127b384828501612619565b91505092915050565b6127c58161264e565b82525050565b60006020820190506127e060008301846127bc565b92915050565b600080fd5b600080fd5b600080fd5b60008083601f84011261280b5761280a6127e6565b5b8235905067ffffffffffffffff811115612828576128276127eb565b5b602083019150836001820283011115612844576128436127f0565b5b9250929050565b60008083601f840112612861576128606127e6565b5b8235905067ffffffffffffffff81111561287e5761287d6127eb565b5b60208301915083602082028301111561289a576128996127f0565b5b9250929050565b60008083601f8401126128b7576128b66127e6565b5b8235905067ffffffffffffffff8111156128d4576128d36127eb565b5b6020830191508360208202830111156128f0576128ef6127f0565b5b9250929050565b60008060008060008060608789031215612914576129136125cc565b5b600087013567ffffffffffffffff811115612932576129316125d1565b5b61293e89828a016127f5565b9650965050602087013567ffffffffffffffff811115612961576129606125d1565b5b61296d89828a0161284b565b9450945050604087013567ffffffffffffffff8111156129905761298f6125d1565b5b61299c89828a016128a1565b92509250509295509295509295565b60006129b68261262e565b9050919050565b6129c6816129ab565b82525050565b60006020820190506129e160008301846129bd565b92915050565b60008060008060008060006080888a031215612a0657612a056125cc565b5b600088013567ffffffffffffffff811115612a2457612a236125d1565b5b612a308a828b016127f5565b97509750506020612a438a828b01612619565b955050604088013567ffffffffffffffff811115612a6457612a636125d1565b5b612a708a828b0161284b565b9450945050606088013567ffffffffffffffff811115612a9357612a926125d1565b5b612a9f8a828b016128a1565b925092505092959891949750929550565b612ab9816129ab565b8114612ac457600080fd5b50565b600081359050612ad681612ab0565b92915050565b600060208284031215612af257612af16125cc565b5b6000612b0084828501612ac7565b91505092915050565b7f4e487b7100000000000000000000000000000000000000000000000000000000600052601160045260246000fd5b6000612b43826126cc565b9150612b4e836126cc565b925082821015612b6157612b60612b09565b5b828203905092915050565b600081905092915050565b50565b6000612b87600083612b6c565b9150612b9282612b77565b600082019050919050565b6000612ba882612b7a565b9150819050919050565b600082825260208201905092915050565b7f436f756c64206e6f742073656e642072656d61696e696e672066756e6473207460008201527f6f20746865207061796572000000000000000000000000000000000000000000602082015250565b6000612c1f602b83612bb2565b9150612c2a82612bc3565b604082019050919050565b60006020820190508181036000830152612c4e81612c12565b9050919050565b6000604082019050612c6a60008301856126d6565b612c7760208301846126d6565b9392505050565b7f4e487b7100000000000000000000000000000000000000000000000000000000600052602160045260246000fd5b7f4e487b7100000000000000000000000000000000000000000000000000000000600052603260045260246000fd5b7f56616c756520696e76616c696400000000000000000000000000000000000000600082015250565b6000612d12600d83612bb2565b9150612d1d82612cdc565b602082019050919050565b60006020820190508181036000830152612d4181612d05565b9050919050565b6000612d53826126cc565b91507fffffffffffffffffffffffffffffffffffffffffffffffffffffffffffffffff8203612d8557612d84612b09565b5b600182019050919050565b600060208284031215612da657612da56125cc565b5b6000612db484828501612677565b91505092915050565b7f4164647265737320696e76616c69640000000000000000000000000000000000600082015250565b6000612df3600f83612bb2565b9150612dfe82612dbd565b602082019050919050565b60006020820190508181036000830152612e2281612de6565b9050919050565b82818337600083830152505050565b6000612e448385612b6c565b9350612e51838584612e29565b82840190509392505050565b6000612e6a828486612e38565b91508190509392505050565b6000612e81826126cc565b9150612e8c836126cc565b9250827fffffffffffffffffffffffffffffffffffffffffffffffffffffffffffffffff03821115612ec157612ec0612b09565b5b828201905092915050565b6000819050919050565b6000612ef1612eec612ee78461262e565b612ecc565b61262e565b9050919050565b6000612f0382612ed6565b9050919050565b6000612f1582612ef8565b9050919050565b612f2581612f0a565b82525050565b6000608082019050612f4060008301876126d6565b612f4d60208301866126d6565b612f5a60408301856126d6565b612f676060830184612f1c565b95945050505050565b600081519050612f7f81612700565b92915050565b600060208284031215612f9b57612f9a6125cc565b5b6000612fa984828501612f70565b91505092915050565b6000604082019050612fc760008301856127bc565b612fd460208301846126d6565b9392505050565b612fe481612759565b8114612fef57600080fd5b50565b60008151905061300181612fdb565b92915050565b60006020828403121561301d5761301c6125cc565b5b600061302b84828501612ff2565b91505092915050565b600060608201905061304960008301866127bc565b6130566020830185612f1c565b61306360408301846126d6565b949350505050565b600060608201905061308060008301866127bc565b61308d60208301856127bc565b61309a60408301846126d6565b949350505050565b7f436f756c64206e6f742073656e642072656d61696e696e672066756e6473207460008201527f6f20746865207265636569766572000000000000000000000000000000000000602082015250565b60006130fe602e83612bb2565b9150613109826130a2565b604082019050919050565b6000602082019050818103600083015261312d816130f1565b9050919050565b600060408201905061314960008301856127bc565b6131566020830184612f1c565b9392505050565b600081519050919050565b60005b8381101561318657808201518184015260208101905061316b565b83811115613195576000848401525b50505050565b6000601f19601f8301169050919050565b60006131b78261315d565b6131c18185612bb2565b93506131d1818560208601613168565b6131da8161319b565b840191505092915050565b600060408201905081810360008301526131ff81856131ac565b905061320e60208301846126d6565b9392505050565b7f536166654d6174683a206164646974696f6e206f766572666c6f770000000000600082015250565b600061324b601b83612bb2565b915061325682613215565b602082019050919050565b6000602082019050818103600083015261327a8161323e565b9050919050565b600061328c826126cc565b9150613297836126cc565b9250817fffffffffffffffffffffffffffffffffffffffffffffffffffffffffffffffff04831182151516156132d0576132cf612b09565b5b828202905092915050565b7f4e487b7100000000000000000000000000000000000000000000000000000000600052601260045260246000fd5b6000613315826126cc565b9150613320836126cc565b9250826133305761332f6132db565b5b828204905092915050565b7f536166654d6174683a206d756c7469706c69636174696f6e206f766572666c6f60008201527f7700000000000000000000000000000000000000000000000000000000000000602082015250565b6000613397602183612bb2565b91506133a28261333b565b604082019050919050565b600060208201905081810360008301526133c68161338a565b9050919050565b600060208201905081810360008301526133e781846131ac565b90509291505056fea264697066735822122012b8c83c339b65e67c2984c6815712f35f39e14c28b267932334274b1d2c5f5364736f6c634300080e00333d3d3d3d3d3d3d3d3d68656c6c6f20776f726c643d3d3d3d3d3d3d3d3d3d3d3d3d3d",
  "devdoc": {
    "kind": "dev",
    "methods": {
      "distributeNativeCoin(bytes,address[],uint256[])": {
        "params": {
          "_addresses": "The address of the recipient",
          "_reference": "the unique indentifier*",
          "_salaryAmounts": "the amount to send"
        }
      },
      "distributeToken(bytes,bytes8,address[],uint256[])": {
        "params": {
          "_addresses": "The address of the recipient",
          "_reference": "the unique indentifier",
          "_salaryAmounts": "the amount to send",
          "_symbol": "token symbol*"
        }
      }
    },
    "version": 1
  },
  "userdoc": {
    "kind": "user",
    "methods": {
      "constructor": {
        "notice": "Constructor function Initializes contract with salary charge."
      },
      "distributeNativeCoin(bytes,address[],uint256[])": {
        "notice": "Distribute Native tokens Send `_salaryAmounts` tokens to `_addresses` from your account"
      },
      "distributeToken(bytes,bytes8,address[],uint256[])": {
        "notice": "Distribute tokens Send `_salaryAmounts` tokens to `_addresses` from your account"
      }
    },
    "version": 1
  },
  "storageLayout": {
    "storage": [
      {
        "astId": 292,
        "contract": "contracts/KonnadexMultiSender.sol:KonnadexMultiSender",
        "label": "status",
        "offset": 0,
        "slot": "0",
        "type": "t_enum(EnteredState)305"
      },
      {
        "astId": 294,
        "contract": "contracts/KonnadexMultiSender.sol:KonnadexMultiSender",
        "label": "owner",
        "offset": 1,
        "slot": "0",
        "type": "t_address_payable"
      },
      {
        "astId": 296,
        "contract": "contracts/KonnadexMultiSender.sol:KonnadexMultiSender",
        "label": "salaryCharge",
        "offset": 0,
        "slot": "1",
        "type": "t_uint256"
      },
      {
        "astId": 298,
        "contract": "contracts/KonnadexMultiSender.sol:KonnadexMultiSender",
        "label": "feeAmountConverter",
        "offset": 0,
        "slot": "2",
        "type": "t_uint256"
      },
      {
        "astId": 302,
        "contract": "contracts/KonnadexMultiSender.sol:KonnadexMultiSender",
        "label": "tokens",
        "offset": 0,
        "slot": "3",
        "type": "t_mapping(t_bytes8,t_address)"
      }
    ],
    "types": {
      "t_address": {
        "encoding": "inplace",
        "label": "address",
        "numberOfBytes": "20"
      },
      "t_address_payable": {
        "encoding": "inplace",
        "label": "address payable",
        "numberOfBytes": "20"
      },
      "t_bytes8": {
        "encoding": "inplace",
        "label": "bytes8",
        "numberOfBytes": "8"
      },
      "t_enum(EnteredState)305": {
        "encoding": "inplace",
        "label": "enum KonnadexMultiSender.EnteredState",
        "numberOfBytes": "1"
      },
      "t_mapping(t_bytes8,t_address)": {
        "encoding": "mapping",
        "key": "t_bytes8",
        "label": "mapping(bytes8 => address)",
        "numberOfBytes": "32",
        "value": "t_address"
      },
      "t_uint256": {
        "encoding": "inplace",
        "label": "uint256",
        "numberOfBytes": "32"
      }
    }
  }
}